S00B0000526F622E73726563F6
S11300000C942A000C9434000C9434000C943400A6
S11300100C9434000C9434000C9434000C9434008C
S11300200C9434000C9434000C9434000C9434007C
S11300300C9434000C9434000C9434000C9434006C
S11300400C9434000C9434000C9434000C9434005C
S11300500C94340011241FBECFE5D8E0DEBFCDBF21
S11300600E9436000C9446000C94000081E084BB8E
S113007091E085B3892785BB2FEF31EE84E02150D1
S113008030408040E1F700C00000F3CFF894FFCF88
S9030000FC
